:020000040800F2
:10000000A0060020D501000817110008ED0A00081D
:1000100075100008BF050008191A0008000000004C
:1000200000000000000000000000000009130008AC
:10003000CD0700080000000091110008A514000879
:10004000EF010008EF010008EF010008EF010008D0
:10005000EF010008EF010008EF010008EF010008C0
:10006000EF010008EF010008EF010008EF010008B0
:10007000EF010008EF010008EF010008EF010008A0
:10008000EF010008EF010008EF010008EF01000890
:10009000EF010008EF010008EF010008EF01000880
:1000A000EF010008EF010008EF010008EF01000870
:1000B000E9140008EF010008EF010008EF01000853
:1000C000EF010008EF010008EF010008EF01000850
:1000D000EF010008EF010008EF010008C117000858
:1000E0003D080008EF010008EF010008EF010008DB
:1000F000EF010008EF010008EF010008EF01000820
:10010000EF010008EF010008EF010008EF0100080F
:10011000EF010008EF010008EF010008EF010008FF
:10012000EF010008EF010008EF010008EF010008EF
:1001300000F002F800F03FF80AA090E8000C8244BA
:100140008344AAF10107DA4501D100F034F8AFF297
:10015000090EBAE80F0013F0010F18BFFB1A43F0A5
:10016000010318473422000054220000103A24BF33
:1001700078C878C1FAD8520724BF30C830C144BF0C
:1001800004680C607047000000230024002500264E
:10019000103A28BF78C1FBD8520728BF30C148BFEA
:1001A0000B607047642900F07180002070471FB514
:1001B0001FBD10B510BD00F0CCF91146FFF7F7FFD9
:1001C00001F054FC00F0EAF903B4FFF7F2FF03BCBE
:1001D00000F0EEF90948804709480047FEE7FEE7CE
:1001E000FEE7FEE7FEE7FEE7FEE7FEE7FEE7FEE7E7
:1001F00004480549054A064B70470000A914000849
:1002000031010008A0000020A0060020A00200206C
:10021000A00200200FB41CB5074B06AA7B44694618
:100220000090059800F07DF90020694600F08CF9F7
:100230001CBC5DF814FB00002903000070B50446E7
:1002400085690068C10601D5302600E02026C00778
:1002500007D070BDD4E9012130469047206A401C88
:1002600020626D1EF6D570BD70B5044685690078B4
:10027000C00707D170BDD4E9012120209047206A32
:10028000401C20626D1EF6D570BD00002DE9F041C6
:100290000646002410687529314616A510D0AFF324
:1002A0000080002802DA404213A507E031688A077F
:1002B00001D512A502E0490704D511A5012401E0EA
:1002C000AFF3008000210A2206F1240709E0B0FB09
:1002D000F2FCB0FBF2F302FB1C00303078541846FD
:1002E000491C0028F3D123462A463046BDE8F04198
:1002F00000F0B9B8000000002D0000002B00000045
:10030000200000002DE9F05F894604464FF0000A06
:10031000DFF824B1FB44C0F820A02046E1688847FC
:1003200000287DD0252806D0D4E901219047206AF5
:10033000401C2062F1E700255F462046E1688847BF
:100340002028064607DB312E05D2B81910F8200CFC
:1003500008B10543F1E7A80701D525F00405C4F865
:100360001CA00027C4F818A02A2E09D0304601F09E
:100370006FFB38B304EB8708303EC8F8186019E00B
:1003800059F8041B204604EB87029161E168884715
:10039000012F064618D1E069002820DA25F0200553
:1003A0001DE0D8F8180000EB800006EB4000303864
:1003B000C8F818002046E1688847064601F048FB67
:1003C0000028EED1012F0AD02E2E08D12046E16858
:1003D00088477F1C0646022F45F02005C4DBA06934
:1003E000002803DA404245F00105A061E80701D08A
:1003F00025F01005A6B1A6F14100192802D8203633
:1004000045F400654A463146204625604D46FFF7D3
:10041000C9FE60B1012807D0ED1D25F0070000E0FE
:1004200007E000F1080978E705F1040975E73046AF
:100430007AE7206ABDE8F09F6E20000030B50546DF
:100440000B462A4613F8014B12F8010B08B1A042E3
:10045000F8D01CB1002802D06D1CF1E7284630BD51
:100460007047704770472DE9F0470D469946924610
:10047000044600F124080168880604D5E06921F0EB
:100480001001216000E00120A84201DD471B00E0CF
:100490000027A1697A1902EB0900081AA0612078E7
:1004A000C00602D42046FFF7C9FE002608E0D4E9C2
:1004B00001211AF806009047206A401C761C206231
:1004C0004E45F4DB2078C0060AD52046FFF7B6FE7D
:1004D00006E0D4E9012130209047206A401C2062C8
:1004E000381EA7F10107F4DC07E0D4E9012118F870
:1004F00005009047206A401C2062281EA5F10105D6
:10050000F3DC2046FFF7B0FE2078000602D502207B
:10051000BDE8F0870120FBE701694A1C0261087809
:10052000704700B58FB0CDE9013100210591054933
:100530007944CDE9031011466846FFF7E3FE0FB09A
:1005400000BD0000E5FFFFFF0A6802F8010B0A602A
:100550007047754600F028F8AE46050069465346D8
:1005600020F00700854618B020B5FFF741FEBDE832
:1005700020404FF000064FF000074FF000084FF00A
:10058000000B21F00701AC46ACE8C009ACE8C0099B
:10059000ACE8C009ACE8C0098D4670470446AFF32B
:1005A00000802046FFF710FE004870474000002002
:1005B00001491820ABBEFEE7260002007047FEE7A7
:1005C00005496FF027000870044908700449087055
:1005D0000449087070470000040000200500002056
:1005E0000600002007000020044928200870044964
:1005F000087004490870044908707047040000201E
:1006000005000020060000200700002006496FF0CA
:100610001300064A08702821117005490870054921
:100620003220087070470000040000200500002000
:10063000060000200700002070B54848484D494C8E
:1006400090F90010286800291CDD884204D204219A
:10065000204600F0DCF903E00421204600F0D5F943
:100660000121204600F0D1F93F48404C90F90000AC
:1006700000282ADD2968814211D20821204600F095
:10068000C6F910E0E8DA49428842E5D20421204662
:1006900000F0BBF90121204600F0B9F9E4E7082198
:1006A000204600F0B2F92021204600F0AEF9304893
:1006B000304E90F9000000282BDD2968814212D2CB
:1006C0000121304600F0A3F911E0E8DA2968404240
:1006D0008142E4D20821204600F097F920212046EB
:1006E00000F095F9E3E70121304600F08EF904218E
:1006F000304600F08AF920484FF4007190F900006C
:10070000002814DD2A6882421FD2204600F07FF9BB
:100710001EE0E8DA296840428142E4D201213046F5
:1007200000F073F90421304600F071F9E3E70CDAC8
:100730002A684042824208D2204600F066F92046EC
:10074000BDE87040802100F062B9204600F05DF9FC
:100750002046BDE87040802100F057B90400002019
:10076000000000200008014005000020001C01409E
:100770000600002000100140070000200649282044
:10078000074A087005496FF0130008703221117094
:100790000449087070470000040000200500002094
:1007A00006000020070000200449002008700449CA
:1007B000087004490870044908707047040000205C
:1007C000050000200600002007000020704710B53B
:1007D000044602E08C2000F005F8641EE4B2F9D271
:1007E00010BD000031B50C4D0098012184B228469F
:1007F00000F0F2FE2146284600F00EFF03E02846F6
:1008000000F0F4FE0446012CF9D82846BDE8384033
:10081000002100F0E1BE00000004004000EBC00138
:100820004FF0E0204161016941F00101016101697E
:10083000C903FCD5002101618161704710B54FF4F7
:100840008064204600F010F8002806D0204600F012
:1008500005F8BDE8104000F085B910BD01490860F9
:100860007047000014040140064A01460020126847
:10087000044B0A4014331B680B4202D0002A00D0FC
:10088000012070470004014030B51A4A837901689D
:1008900053B313688B431360111D0B680468A343A3
:1008A0000B60017911440B68046823430B60114B02
:1008B000083319680468A14319601C1D2168056884
:1008C000A94321604179102905D011440A680068C4
:1008D00002430A6030BD196802681143196021683B
:1008E00000680143216030BD0079104402688A43EA
:1008F000026030BD0004014010B50121042000F069
:100900006BFC0121082000F067FC0121102000F0A1
:1009100063FC0121202000F05FFC0121402000F059
:100920005BFC0121802000F057FC0121BDE8104054
:10093000080200F051BC000010B58A0721F0030442
:100940000649120F21440F238C6893409C438C600E
:100950008B68904003438B6010BD00000000014095
:10096000F0B5CC78002204F00F03E40601D58C78B2
:1009700023430C784FF00F0C14F0FF0F4FF0010ED3
:100980001BD005680E880EFA02F42640A64210D14C
:1009900096000CFA06F725EA070703FA06F5CE7863
:1009A0003D43282E02D0482E02D002E0446100E0F0
:1009B0000461521C082AE5D305600A88FF2A1CD965
:1009C0004468002202F108060EFA06F50E882E4051
:1009D000AE420ED196000CFA06F7BC4303FA06F7B6
:1009E000CE783C43282E00D14561CE78482E00D1E8
:1009F0000561521C082AE5D34460F0BD0246002080
:100A000092680A4200D0012070474161704701613D
:100A1000704700002DE9F047304F4FF480763146A3
:100A20003846FFF7F2FF2E4C012020702D4D00219B
:100A3000284600F0F1FD0121284600F0CDFD2846B2
:100A400000F0D4FD0B28FAD302202070314638463E
:100A5000FFF7DDFF0021284600F0DEFDA946002754
:100A60004EF660284FF480451F4E04E0484600F0E3
:100A7000BDFD40450FD829463046FFF7BFFF00288F
:100A8000F4D00021484600F0C7FD0CE0484600F0D5
:100A9000ADFD404507DD2770A7604846BDE8F0473B
:100AA000002100F099BD29463046FFF7A7FF012835
:100AB000ECD04D46484600F099FD60600021284684
:100AC00000F08AFD60684FF4FA6100EB001040000E
:100AD00090FBF1F0A0602770BDE8F08700140140A2
:100AE0001800002000080040000C0140FEE7000054
:100AF0007FB50121084600F06FFB4FF48064ADF82C
:100B00000C4048208DF80F0003208DF80E0003A93B
:100B10001348FFF725FF0A210320FFF70DFF0C20E4
:100B200000948DF8050000248DF8044001258DF80F
:100B300006506846FFF7A8FE4FF4E06000F01EFB89
:100B400028208DF808008DF809408DF80A408DF8AE
:100B50000B5002A800F0E0FA00F0AEFD7FBD0000EF
:100B6000001401402DE9F04700240F20FFF72FFE6D
:100B70003A4E4FF4806739463046FFF73FFF012871
:100B800065D037492820087002E00120FFF71FFEDA
:100B900039463046FFF732FF0028F6D0DFF8C49020
:100BA0000025B046002602E00120FFF710FE39467E
:100BB0004046FFF723FF0028F6D102E00120FFF7AF
:100BC00006FE39464046FFF719FF0028F6D006E03A
:100BD0000120FFF7FCFD641CE4B21E2C37D239461D
:100BE0004046FFF70BFF0028F2D119F805004946EF
:100BF000400809F80500082C03D340F0800009F8EC
:100C00000500761C0024F6B2082ED0D36D1CEDB280
:100C1000042DC7D3C97899F80200C943C9B28842E4
:100C200015D11149432816D005DC152809D04028D4
:100C30000DD1492006E044280BD0462807D1412099
:100C400000E04220087007490120491E0870BDE8F5
:100C5000F0874320F6E74420F4E700000014014049
:100C60000E000020250000200D00002070B500F0CF
:100C7000BFF8294D4FF4805421462846FFF7C5FEA2
:100C800040F6B830FFF7CAFD21462846FFF7BFFE01
:100C90003220FFF7C3FDE22000F00EF90F20FFF72E
:100CA000BDFD2C2000F008F90F20FFF7B7FD2E2026
:100CB00000F002F90F20FFF7B1FD2F2000F0FCF843
:100CC0000F20FFF7ABFD242000F0F6F8812000F0A4
:100CD000F3F8162000F0F0F8A22000F0EDF8C8209C
:100CE00000F0EAF8A02000F0E7F8402000F0E4F877
:100CF000AF2000F0E1F800F0C5F8002107A2084697
:100D000000F042F906A20221002000F0B3FBBDE88A
:100D10007040202000F050B80010014042543A00CA
:100D2000436F6D6D616E643A0000000008B56A465D
:100D30008DF8000000208DF801000146182000F019
:100D400099FB08BD2DE9FF410CA4DDF828C0F0CCCB
:100D50008DE8F0008DF800008DF803108DF8062066
:100D60008DF80CC000208DF809308DF80D006A4612
:100D7000042100F07FFBBDE8FF810000202020203F
:100D80002020202020202020200000001CB508A2C8
:100D9000D2E90032CDE900328DF803008DF806105B
:100DA00000208DF807006A46062100F063FB1CBD99
:100DB000202020202020202001B56A460221482042
:100DC00000F058FB08BD000008B5024606A16846C1
:100DD000FFF720FA00208DF8030001466A464820FC
:100DE00000F048FB08BD000025303364000000001F
:100DF000F8B54FF48060ADF8000003251B4E8DF868
:100E0000025010248DF8034069463046FFF7A8FDD4
:100E10002002ADF800008DF802508DF803406946BD
:100E20003046FFF79DFD0220ADF80000104E8DF812
:100E300002508DF8034069463046FFF791FD0820C7
:100E4000ADF800008DF802508DF803406946304639
:100E5000FFF786FD2020ADF800008DF802508DF8D8
:100E6000034069463046FFF77BFDF8BD00100140A6
:100E7000001401400249CA684240CA60704700003D
:100E80000020014070B5002505F1B000C0B200F0AF
:100E900013F8102000F010F8002000F00DF80024E6
:100EA000002000F03DF8641CE4B2802CF8D36D1CE7
:100EB000EDB2082DE8D370BD2DE9F041DFF8588080
:100EC00005464FF4806739464046FFF79EFD134EB6
:100ED00002213046FFF799FD002408213046FFF734
:100EE00094FD28064FF02001304602D5FFF78FFD14
:100EF00001E0FFF78AFD08213046FFF788FD68060C
:100F0000641C050E64B2082CE7DB39464046BDE898
:100F1000F041FFF77CBD00000010014000140140CB
:100F20002DE9F041DFF8588005464FF480673946D7
:100F30004046FFF76AFD134E02213046FFF767FD7A
:100F4000002408213046FFF760FD28064FF02001FD
:100F5000304602D5FFF75BFD01E0FFF756FD0821A3
:100F60003046FFF754FD6806641C050E64B2082C79
:100F7000E7DB39464046BDE8F041FFF748BD0000D9
:100F800000100140001401402DE9F84F07464806C3
:100F9000000E1646072801D8802F02D90020BDE890
:100FA000F88FB030C0B28346FFF786FF3DE0584669
:100FB000FFF782FF380907F00F01103082460091D9
:100FC000FFF77AFF0098FFF777FF0025194805EB38
:100FD000051100EB4108317898F8200088421FD1B4
:100FE00098F82100717888421AD100240BF1010988
:100FF0000CE0102C0AD109F0FF00FFF75DFF0AF0AA
:10100000FF00FFF759FF0098FFF756FF18F804009C
:10101000FFF786FF641CE4B2202CEAD31037FFB23E
:101020006D1CEDB2322DD1D3B61C30780028BED164
:101030000120B4E7381C0008F8B54FF40060ADF8A3
:10104000000048240A4E8DF8034003258DF8025015
:1010500069463046FFF784FCB014ADF800008DF807
:1010600003408DF8025069463046FFF779FCF8BD21
:1010700000080140FEE70000F8B50424ADF8004088
:1010800002208DF8020010201C4E8DF803006946E6
:101090003046FFF765FC0125ADF800506946304643
:1010A000FFF75EFC0820164EADF80000694630469A
:1010B000FFF756FC2020ADF8000069463046FFF7E8
:1010C0004FFCADF800500F4D69462846FFF748FC2D
:1010D000ADF8004069462846FFF742FCE001ADF854
:1010E000000069463046FFF73BFC8020ADF8000069
:1010F00069463046FFF734FCF8BD000000080140A7
:10110000001C01400010014010B5FFF7B5FFBDE81D
:101110001040FFF749BB704730B50F23C278017804
:101120000125F2B1144A126801F1E02102F4E062F3
:10113000C2F5E062120AC2F10404D3404278A24030
:1011400084781C401443220181F80024007800F0C8
:101150001F018D404009800000F1E020C0F80051DF
:1011600030BD01F01F0085404809800000F1E020FB
:10117000C0F8805130BD00000CED00E0024908438A
:1011800002490860704700000000FA050CED00E01D
:101190007047000070B50446084D0AE081B2284649
:1011A000641C00F0EBFB4021284600F04EFB0028B9
:1011B000F9D094F900000028F0D170BD004800403B
:1011C000044A0029D16901D0014300E08143D16183
:1011D0007047000000100240044A0029916901D0C4
:1011E000014300E08143916170470000001002401C
:1011F00030B5204A5168204B11F00C0103D004296E
:1012000001D0082901D0036012E05168536801F44D
:1012100070114FF0020413F4803F04EB914102D0AF
:1012200053689B0301D5154B00E0134B59430160F4
:1012300051680F2303EA1111114B5C5C0168E14016
:1012400041605468072505EA14241C5D21FA04F462
:101250008460546805EAD4241B5DD940C16052689B
:10126000032303EA9232064B1B1F9A5CB1FBF2F197
:10127000016130BD0010024000127A0000093D00FB
:101280002D000020F8B54FF48070ADF8000048251F
:101290001B4E8DF8035003248DF8024069463046FA
:1012A000FFF75EFB4020ADF800008DF803508DF88D
:1012B000024069463046FFF753FB1020ADF80000AE
:1012C0008DF803508DF8024069463046FFF748FB21
:1012D0008020ADF800008DF803508DF8024069467B
:1012E0000848FFF73DFB0420ADF800008DF80350DF
:1012F0008DF8024069463046FFF732FBF8BD00002A
:10130000002001400010014070470000034600200B
:10131000054A02E0994206D0401C00EB001111443E
:10132000097C2029F6D17047481D000838B54FF4D4
:101330008054ADF8004010208DF803000320064DC6
:101340008DF8020069462846FFF70AFB2146284629
:10135000FFF75DFB38BD0000001401400CB5002212
:10136000264800920192016841F4803101604FF4F7
:10137000A063016801F4003101910099491C0091BA
:10138000019911B900999942F3D10168890333D5C4
:10139000012101911A490A6842F010020A600A68A4
:1013A00022F003020A600A6842F002020A60416801
:1013B000416041684160416841F480614160416839
:1013C00021F47C114160416841F4E81141600168F9
:1013D00041F08071016001688901FCD5416821F00C
:1013E00003014160416841F0020141604168C1F37D
:1013F00081010229FAD10CBD01920CBD00100240FE
:10140000002002402DE9F0411746064607292DD855
:10141000802E2BD8B031CDB22846FFF74DFD3409D0
:10142000103406F00F082046FFF746FD4046FFF750
:1014300043FD3846FFF76AFFC0B20D4900EB0010CC
:10144000002647186D1C0AE0082E08D1E8B2FFF705
:1014500033FD2046FFF730FD4046FFF72DFDB85D18
:10146000FFF75EFD761CF6B2102EEDD3BDE8F081DD
:10147000481D00082DE9F04116460D460746044672
:101480000BE0E9B2E0B2FFF7BDFF04F11000083451
:10149000802801D93C46AD1C761C3278002AF0D158
:1014A000BDE8F081704700000C48016841F001017F
:1014B000016041680A4A114041600168094A1140CF
:1014C0000160016821F480210160416821F4FE017E
:1014D00041604FF41F018160FFF740BF00100240E0
:1014E0000000FFF8FFFFF6FE70B501218C072046D3
:1014F00000F07EF800282ED00121204600F069F887
:10150000154900240878401CC0B208700A280DD381
:101510000C701249124B0868401C08601A78521C63
:101520001A70322800D30C60FFF786F80D4D4FF487
:1015300080512878401CC2B20B482A7003780B48AF
:101540009A4202D8FFF763FA01E0FFF75EFA2878C3
:10155000C82800D32C7070BD1000002000000020AF
:1015600008000020110000200B00002000140140A2
:101570007FB501210846FFF723FE6320ADF8040084
:101580004720ADF8000000244FF08045ADF806403C
:10159000ADF802406946284600F040F8012128468F
:1015A00000F017F801221146284600F02DF801211D
:1015B000284600F011F81C208DF80C008DF80D4025
:1015C00001208DF80E008DF80F0003A8FFF7A4FD91
:1015D0007FBDC943018270470029018802D041F0D4
:1015E000010101E021F0010101807047808C70470A
:1015F00002460020138A92890B4202EA010202D0BD
:10160000002A00D001207047002A828901D00A43B5
:1016100000E08A43828170478184704730B5028838
:101620001B4C1C4DA0420DD0A8420BD0B0F1804FF6
:1016300008D0194B984205D0184B984202D0184B4D
:10164000984203D122F070034A881A43154B9842FE
:1016500006D0154B984203D022F44073CA881A432F
:1016600002808A8882850A880285A0420AD0A84220
:1016700008D00E4A904205D00D4A904202D00D4A41
:10168000904201D1097A01860121818230BD00009A
:10169000002C0140003401400004004000080040DC
:1016A000000C0040001000400014004000400140C9
:1016B00000440140004801400EB501210220FFF71F
:1016C0007FFD0120ADF804004720ADF80000102098
:1016D000ADF8020069460248FFF7A0FF0EBD00000A
:1016E000000400400EB501210420FFF769FD4FF60C
:1016F000FF70ADF804004720ADF800000020ADF801
:10170000020069460148FFF789FF0EBD000800404E
:1017100070B50446012186B08804FFF751FD4FF4EF
:101720008060ADF8100002258DF812501820224E6E
:101730008DF8130004A93046FFF712F904218DF843
:1017400013104802ADF8100004A93046FFF708F95D
:1017500000940024ADF808400C20184EADF8044069
:10176000ADF80A00ADF80640ADF80C4069463046C9
:1017700000F0AAF8012240F22551304600F08BF823
:101780000121304600F057F84021304600F04AF879
:101790004FF4E060FFF7F2FC27208DF814008DF87D
:1017A00015408DF8165001208DF8170005A8FFF799
:1017B000B3FC06B070BD0000000C014000480040C2
:1017C00070B5134C40F225552946204600F044F8E8
:1017D00000281BD02946204600F027F8204600F0BC
:1017E000C9F80C494A780A708A784A70CA788A70AF
:1017F0000A79CA7008710020487107A10548FEF7F0
:101800001DFE002802D006490120087070BD0000AE
:1018100000480040120000204F4B0D0D0A00000050
:101820000F000020C943018070470A0A012191403E
:10183000C943018070470029818902D041F40051D9
:1018400001E021F400518181704702460020128896
:101850000A4200D00120704770B501F01F05012633
:101860000024C1F3421306FA05F2012B0FD0022B1C
:101870000FD0838A4FEA11210088134206FA01F63D
:1018800000EA060001D000B10124204670BD838922
:10189000F0E7038AEEE710B5C1F3421301F01F042D
:1018A0000121A140012B07D0022B07D01430002AC0
:1018B000026805D00A4304E00C30F8E71030F6E780
:1018C0008A43026010BD000030B50446008A85B02E
:1018D0000D464CF6FF710840E98801432182A0893A
:1018E0004EF6F3110840A9882A8911436A890243F8
:1018F0001143A181A08A4FF6FF410840A989014305
:10190000A1826846FFF774FC1948844201D103980C
:1019100000E00298A189090400EBC00101EB00106E
:10192000296801D5490000E08900B0FBF1F064228C
:10193000B0FBF2F109010B096FF018056B4300EBE6
:101940008300A3891D044FF0320306D503EBC000CA
:10195000B0FBF2F000F0070005E003EB0010B0FB75
:10196000F2F000F00F000843208105B030BD000008
:10197000003801408088C0F308007047C1F30801B7
:10198000818070472DE9FF414FF48045ADF800504C
:1019900048208DF8030003248DF8024069461C4856
:1019A000FEF7DEFFAE11ADF8006010208DF80300E9
:1019B000184F8DF8024069463846FEF7D1FF0E21D8
:1019C0000120FEF7B9FF0C2001958DF809000025D4
:1019D0008DF808508DF80A5001A8FEF755FF4FF416
:1019E000E060FFF7CBFB28208DF80C008DF80D5040
:1019F0008DF80E4001208DF80F0003A8FFF78CFB37
:101A0000FFF770FE31463846FFF701F8BDE8FF8169
:101A1000000C014000140140FEE7000008B54FF43F
:101A20000040ADF8000010208DF8030003208DF871
:101A3000020069460448FEF793FF4FF480510348C3
:101A4000FEF7E5FF08BD0000002001400014014042
:101A500030380A2801D201207047002070474FF02B
:101A6000E020016921F00401016170471CB5FFF716
:101A7000F6FFFEF741FFFFF7D1FFFFF7F7F8FFF79B
:101A800037F8FFF775FDFFF73FFBFFF74FFC4FF40B
:101A90001650FFF73DFEFFF7F5FBFFF773FFFFF76B
:101AA000CBFA5D4E002530780528FCD33570707870
:101AB000401CC0B2707028281ED3757057A0FFF765
:101AC00069FBF5714FF40040FFF7D4F9FEF7A2FF70
:101AD000307910B1012808D00EE0F078401CC0B277
:101AE000F070122808D101203071F078401EC0B289
:101AF000F070052800D13571B078401CC0B2B070CC
:101B00000A2857D34FF04D0ACDF804A0D146D3464A
:101B10005446D0465746B5704FF480714148FEF7A1
:101B20006DFF012801D14FF0300A10213D48FEF72A
:101B300065FF012801D14FF0300B40213948FEF7F5
:101B40005DFF012801D14FF0300980213648FEF7B2
:101B500055FF012800D1302404213248FEF74EFF02
:101B6000012801D1302001904FF480512F48FEF719
:101B700045FF012801D14FF030084FF400612B4898
:101B8000FEF73CFF012800D130274B46524659460C
:101B900000940198FFF7D6F839464046FFF7F6F86B
:101BA00023480068FFF710F9F079012809D04E208A
:101BB000FFF7BCF8B079401E10F0FF00B07102D002
:101BC00005E05920F4E70120B071FEF7EDFD19485A
:101BD000017801297FF467AF057096F90500413857
:101BE000092814D2DFE800F005080B0E13131313B5
:101BF0001100FEF7F9FC0AE0FEF7E2FC07E0FEF751
:101C000005FD04E0FEF7BAFD01E0FEF7CDFD96F913
:101C10000500FFF7D1F846E70800002041540D0AFF
:101C200000000000002001400010014000080140B9
:101C3000200000202400002080FC96E584FC0008A1
:101C4000C8494AC808080000807F024C807F806035
:101C50001F00003F40407800BABD202020202020F7
:101C600020FF202020202020200080804020100CF9
:101C70001360030C102040808000CCAB0000F8887B
:101C8000888888FF88888888F800000000001F087E
:101C90000808087F888888889F80F000B5E78082E0
:101CA0008282828282E2A2928A8682808000000002
:101CB00000000040807F0000000000000000D7D33B
:101CC00004040484E43C2724242424E404040400BD
:101CD00004020100FF0909090949897F0000000089
:101CE000D3D000FE225A8600FE9292929292FE007B
:101CF000000000FF04080700FF4020030C142241ED
:101D00004000CFDE008040201806800007182040E9
:101D10008000000001002070282621202024386047
:101D200000010100B9AB00101292929292929212AD
:101D30001202FE0000000000003F101010103F00D3
:101D400040807F000000CBBE000000FC00000000CF
:101D50000000000C0C00000021000804020804022E
:101D60000000000000000000002220E03820A078E1
:101D70002000020F02020F02020023003048FC88FC
:101D80003000000006081F08070000247088F0805B
:101D90006098000000080601070807002500F08889
:101DA00048B08080000708090A040B0804261016B2
:101DB0000E000000000000000000000000002700EE
:101DC0000000E018040200000000030408100028CE
:101DD00000020418E00000000010080601000000E6
:101DE000292020C0F8C020200001010007000101C7
:101DF000002A404040F8404040000000000300003E
:101E000000002B0000000000000000202C1C00003F
:101E10000000002C004040404040404000000000D6
:101E2000000000002D0000000000000000000C0C6D
:101E300000000000002E00000000C0300C02001066
:101E40000C03000000002F00E010080818E000005C
:101E50000304080804030030001010F8000000001C
:101E60000008080F080800003100300808088870D2
:101E700000000C0A0A09080C00320030084848C863
:101E800030000006080808040300330080601008D2
:101E9000FC00000001020A0A0F08003400F888481C
:101EA0004888880000060808080403003500E09010
:101EB000484898800000030C0808040300360038E6
:101EC0000888681808000000000F000000003700B4
:101ED000304888884830000007090808090600389B
:101EE00000E090080890E00000000C0909040300DD
:101EF0003900000060600000000000000C0C0000D1
:101F0000003A00000040000000000000201800001F
:101F100000003B0040A01010080400000000010277
:101F20000204003C2020202020202000010101018B
:101F3000010101003D0004081010A040000004024F
:101F400002010000003E00382404844438000000F0
:101F5000000C0D0000003FE010C828E818F0000356
:101F6000040B0A090A0500400000E0187080000018
:101F7000080E0901010B0C084108F8484848B00058
:101F800000080F08080804070042E01008080808C5
:101F9000380003040808080402004308F808080889
:101FA00010E000080F0808080403004408F88888B7
:101FB000C8081000080F0808090804004508F88838
:101FC00088C8081000080F08000100000046E01053
:101FD000080808380000030408080907010047083A
:101FE000F888808088F808080F080000080F084863
:101FF000000808F8080800000008080F080800009A
:102000004900000808F8080800302020201F0000C0
:10201000004A08F8C8C028180800080F08000B0C70
:1020200008004B08F8080000000000080F08080826
:10203000080C004C08F8788078F80800080F000FAA
:10204000000F08004D08F830C00008F808080F0815
:102050000003040F004EE01008080810E00003041D
:102060000808080403004F08F8888888887000086A
:102070000F08000000000050E01008080810E00001
:1020800003040A0A0C1413005108F84848C84830E1
:1020900000080F080001030C0852007048888808E7
:1020A0001800000E08080809070053180808F80867
:1020B0000818000000080F080000005408F8080085
:1020C0000008F80800070808080C0700550838C879
:1020D0000000E838080000030C0700000056F8086C
:1020E00000F88008F800010E0701030E01005708F0
:1020F0001828C0C0381808080C0E01010A0C08582E
:1021000008186880681808000000080F0800000020
:10211000591008088868180800080C0B08080804FB
:10212000005A000000FE020202000000001F101012
:1021300010005B0004186080000000000000000335
:102140000C10005C00020202FE00000000101010E3
:102150001F0000005D0000040202020400000000F5
:1021600000000000005E00000000000000002020D1
:102170002020202020205F0000020000000000003E
:1021800000000000000000600080404040408000EF
:1021900000040A0909090F086108F84040408080DE
:1021A00000000F080808080700620080C040404097
:1021B0008000000704080808040063000080404015
:1021C00048F8000007080808080F0864008040402D
:1021D00040408000000709090909050065004040EA
:1021E000F0484848180008080F08080000660080FA
:1021F000404040C04000001D2A2A2A2910006708DC
:10220000F8804040408000080F080000080F086870
:10221000004048C8000000000008080F080800003F
:10222000690000004048C8000000202020201F0056
:10223000006A08F80000C0404000080F0A010E0CB8
:1022400008006B000808F8000000000008080F08EC
:102250000800006C40C04040C04040C0080F08006B
:102260000F08000F6D40C0804040808000080F08BC
:102270000000080F086E00804040404080000007CA
:102280000808080807006F40C08040408080002098
:102290003F28080804030070008080404040C000D0
:1022A0000007080808283F20714040C08040404097
:1022B0000008080F080800000072008040404040FD
:1022C000C000000C09090A0A040073004040F040F5
:1022D00040000000000007080800007440C0000033
:1022E0000040C0000007080808080F087540C040FB
:1022F000000040C040000007080601000076C04012
:1023000000C00040C040030C0403070C030077002A
:1023100040C08040C0400000080C0F030C0800784B
:1023200040C040000040C0402020231C06030000A5
:102330007900C0404040C0400000080C0A09080C69
:10234000007A0000000040BC020200000000000F04
:1023500010107B00000000FF000000000000003FA4
:102360000000007C000202BC400000000010100FC2
:10237000000000007D0000000000000000000000E0
:102380000000000000200400000800000000000021
:102390000002000100001000B82300080000002027
:1023A000400000006C010008F823000840000020F5
:1023B0006006000088010008000000002828282886
:1023C0000000000B004900000000000000000000B9
:1023D00000000000000000000000000000000000FD
:1023E00000020406080000000001020304010203C9
:0823F0000406070809000000C3
:0400000508000131BD
:00000001FF
